{
  "contractName": "DataSharingContract",
  "abi": [
    {
      "inputs": [
        {
          "internalType": "address",
          "name": "_ecRingSignatureContractAddress",
          "type": "address"
        }
      ],
      "payable": false,
      "stateMutability": "nonpayable",
      "type": "constructor"
    },
    {
      "anonymous": false,
      "inputs": [
        {
          "indexed": false,
          "internalType": "address",
          "name": "",
          "type": "address"
        }
      ],
      "name": "addNewDataCustomerEvent",
      "type": "event"
    },
    {
      "anonymous": false,
      "inputs": [
        {
          "indexed": false,
          "internalType": "address",
          "name": "",
          "type": "address"
        }
      ],
      "name": "removeDataCustomerEvent",
      "type": "event"
    },
    {
      "constant": true,
      "inputs": [],
      "name": "dataHash",
      "outputs": [
        {
          "internalType": "bytes32",
          "name": "",
          "type": "bytes32"
        }
      ],
      "payable": false,
      "stateMutability": "view",
      "type": "function"
    },
    {
      "constant": true,
      "inputs": [
        {
          "internalType": "address",
          "name": "",
          "type": "address"
        }
      ],
      "name": "hiddenAddressControlList",
      "outputs": [
        {
          "internalType": "bool",
          "name": "",
          "type": "bool"
        }
      ],
      "payable": false,
      "stateMutability": "view",
      "type": "function"
    },
    {
      "constant": true,
      "inputs": [],
      "name": "owner",
      "outputs": [
        {
          "internalType": "address",
          "name": "",
          "type": "address"
        }
      ],
      "payable": false,
      "stateMutability": "view",
      "type": "function"
    },
    {
      "constant": false,
      "inputs": [
        {
          "internalType": "bytes32",
          "name": "_dataHash",
          "type": "bytes32"
        }
      ],
      "name": "setDataHash",
      "outputs": [],
      "payable": false,
      "stateMutability": "nonpayable",
      "type": "function"
    },
    {
      "constant": false,
      "inputs": [
        {
          "internalType": "address",
          "name": "newCustomer",
          "type": "address"
        }
      ],
      "name": "addNewDataCustomer",
      "outputs": [],
      "payable": false,
      "stateMutability": "nonpayable",
      "type": "function"
    },
    {
      "constant": false,
      "inputs": [
        {
          "internalType": "address",
          "name": "customer",
          "type": "address"
        }
      ],
      "name": "removeDataCustomer",
      "outputs": [],
      "payable": false,
      "stateMutability": "nonpayable",
      "type": "function"
    },
    {
      "constant": false,
      "inputs": [
        {
          "components": [
            {
              "internalType": "string",
              "name": "data",
              "type": "string"
            },
            {
              "internalType": "uint256",
              "name": "delta",
              "type": "uint256"
            },
            {
              "components": [
                {
                  "internalType": "uint256",
                  "name": "X",
                  "type": "uint256"
                },
                {
                  "internalType": "uint256",
                  "name": "Y",
                  "type": "uint256"
                }
              ],
              "internalType": "struct ECSecp256k1.CurveElement[]",
              "name": "RList",
              "type": "tuple[]"
            },
            {
              "internalType": "uint256[]",
              "name": "hashList",
              "type": "uint256[]"
            }
          ],
          "internalType": "struct ECRingSignature.JGSignature",
          "name": "sig",
          "type": "tuple"
        },
        {
          "components": [
            {
              "internalType": "uint256",
              "name": "X",
              "type": "uint256"
            },
            {
              "internalType": "uint256",
              "name": "Y",
              "type": "uint256"
            }
          ],
          "internalType": "struct ECSecp256k1.CurveElement[]",
          "name": "pks",
          "type": "tuple[]"
        },
        {
          "internalType": "uint256",
          "name": "ringSize",
          "type": "uint256"
        }
      ],
      "name": "verifyUserEligibility",
      "outputs": [
        {
          "internalType": "bool",
          "name": "",
          "type": "bool"
        }
      ],
      "payable": false,
      "stateMutability": "nonpayable",
      "type": "function"
    }
  ],
  "bytecode": "0x608060405234801561001057600080fd5b50604051620011c7380380620011c7833981810160405261003491908101906100d0565b336000806101000a81548173ffffffffffffffffffffffffffffffffffffffff021916908373ffffffffffffffffffffffffffffffffffffffff16021790555080600260006101000a81548173ffffffffffffffffffffffffffffffffffffffff021916908373ffffffffffffffffffffffffffffffffffffffff16021790555050610142565b6000815190506100ca8161012b565b92915050565b6000602082840312156100e257600080fd5b60006100f0848285016100bb565b91505092915050565b60006101048261010b565b9050919050565b600073ffffffffffffffffffffffffffffffffffffffff82169050919050565b610134816100f9565b811461013f57600080fd5b50565b61107580620001526000396000f3fe608060405234801561001057600080fd5b506004361061007d5760003560e01c8063b6a8f7031161005b578063b6a8f703146100ee578063cbfe52f71461010a578063dc6c7e7b14610126578063e0a533d4146101425761007d565b80631b3012a31461008257806378f267f6146100a05780638da5cb5b146100d0575b600080fd5b61008a610172565b6040516100979190610cfd565b60405180910390f35b6100ba60048036036100b59190810190610863565b610178565b6040516100c79190610ce2565b60405180910390f35b6100d8610198565b6040516100e59190610c97565b60405180910390f35b610108600480360361010391908101906108b5565b6101bd565b005b610124600480360361011f9190810190610863565b6101c7565b005b610140600480360361013b9190810190610863565b6102e8565b005b61015c600480360361015791908101906108de565b610400565b6040516101699190610ce2565b60405180910390f35b60015481565b60036020528060005260406000206000915054906101000a900460ff1681565b6000809054906101000a900473ffffffffffffffffffffffffffffffffffffffff1681565b8060018190555050565b6000809054906101000a900473ffffffffffffffffffffffffffffffffffffffff1673ffffffffffffffffffffffffffffffffffffffff163373ffffffffffffffffffffffffffffffffffffffff1614610256576040517f08c379a000000000000000000000000000000000000000000000000000000000815260040161024d90610d18565b60405180910390fd5b6001600360008373ffffffffffffffffffffffffffffffffffffffff1673ffffffffffffffffffffffffffffffffffffffff16815260200190815260200160002060006101000a81548160ff0219169083151502179055507f2078e1e48672ca4902b147ae5ee512d8e6cf04cadce5273a738ea77aeee4d511816040516102dd9190610c97565b60405180910390a150565b6000809054906101000a900473ffffffffffffffffffffffffffffffffffffffff1673ffffffffffffffffffffffffffffffffffffffff163373ffffffffffffffffffffffffffffffffffffffff1614610377576040517f08c379a000000000000000000000000000000000000000000000000000000000815260040161036e90610d38565b60405180910390fd5b600360008273ffffffffffffffffffffffffffffffffffffffff1673ffffffffffffffffffffffffffffffffffffffff16815260200190815260200160002060006101000a81549060ff02191690557fc73145bdd5c662565d13b5c578aa3d519442194340bc0904d332d6572469a939816040516103f59190610c97565b60405180910390a150565b600080600260009054906101000a900473ffffffffffffffffffffffffffffffffffffffff1690508073ffffffffffffffffffffffffffffffffffffffff1663b5cd561885856040518363ffffffff1660e01b8152600401610463929190610cb2565b600060405180830381600087803b15801561047d57600080fd5b505af1158015610491573d6000803e3d6000fd5b505050508073ffffffffffffffffffffffffffffffffffffffff16639601349e86856040518363ffffffff1660e01b81526004016104d0929190610d58565b60206040518083038186803b1580156104e857600080fd5b505afa1580156104fc573d6000803e3d6000fd5b505050506040513d601f19601f82011682018060405250610520919081019061088c565b9150509392505050565b60008135905061053981610fd6565b92915050565b600082601f83011261055057600080fd5b813561056361055e82610db5565b610d88565b9150818183526020840193506020810190508385604084028201111561058857600080fd5b60005b838110156105b8578161059e8882610746565b84526020840193506040830192505060018101905061058b565b5050505092915050565b600082601f8301126105d357600080fd5b81356105e66105e182610ddd565b610d88565b9150818183526020840193506020810190508385604084028201111561060b57600080fd5b60005b8381101561063b57816106218882610746565b84526020840193506040830192505060018101905061060e565b5050505092915050565b600082601f83011261065657600080fd5b813561066961066482610e05565b610d88565b9150818183526020840193506020810190508385602084028201111561068e57600080fd5b60005b838110156106be57816106a4888261084e565b845260208401935060208301925050600181019050610691565b5050505092915050565b6000815190506106d781610fed565b92915050565b6000813590506106ec81611004565b92915050565b600082601f83011261070357600080fd5b813561071661071182610e2d565b610d88565b9150808252602083016020830185838301111561073257600080fd5b61073d838284610f83565b50505092915050565b60006040828403121561075857600080fd5b6107626040610d88565b905060006107728482850161084e565b60008301525060206107868482850161084e565b60208301525092915050565b6000608082840312156107a457600080fd5b6107ae6080610d88565b9050600082013567ffffffffffffffff8111156107ca57600080fd5b6107d6848285016106f2565b60008301525060206107ea8482850161084e565b602083015250604082013567ffffffffffffffff81111561080a57600080fd5b6108168482850161053f565b604083015250606082013567ffffffffffffffff81111561083657600080fd5b61084284828501610645565b60608301525092915050565b60008135905061085d8161101b565b92915050565b60006020828403121561087557600080fd5b60006108838482850161052a565b91505092915050565b60006020828403121561089e57600080fd5b60006108ac848285016106c8565b91505092915050565b6000602082840312156108c757600080fd5b60006108d5848285016106dd565b91505092915050565b6000806000606084860312156108f357600080fd5b600084013567ffffffffffffffff81111561090d57600080fd5b61091986828701610792565b935050602084013567ffffffffffffffff81111561093657600080fd5b610942868287016105c2565b92505060406109538682870161084e565b9150509250925092565b60006109698383610bd9565b60408301905092915050565b60006109818383610c79565b60208301905092915050565b61099681610f31565b82525050565b60006109a782610e94565b6109b18185610eed565b93506109bc83610e69565b8060005b838110156109ed5781516109d4888261095d565b97506109df83610ec2565b9250506001810190506109c0565b5085935050505092915050565b6000610a0582610e89565b610a0f8185610edc565b9350610a1a83610e59565b8060005b83811015610a4b578151610a32888261095d565b9750610a3d83610eb5565b925050600181019050610a1e565b5085935050505092915050565b6000610a6382610e9f565b610a6d8185610efe565b9350610a7883610e79565b8060005b83811015610aa9578151610a908882610975565b9750610a9b83610ecf565b925050600181019050610a7c565b5085935050505092915050565b610abf81610f43565b82525050565b610ace81610f4f565b82525050565b6000610adf82610eaa565b610ae98185610f0f565b9350610af9818560208601610f92565b610b0281610fc5565b840191505092915050565b6000610b1a602983610f20565b91507f4f6e6c79206f776e65722063616e20616464206e6577207265766f636174696f60008301527f6e206d656d6265727300000000000000000000000000000000000000000000006020830152604082019050919050565b6000610b80602883610f20565b91507f4f6e6c79206f776e65722063616e2064656c657465207265766f636174696f6e60008301527f206d656d626572730000000000000000000000000000000000000000000000006020830152604082019050919050565b604082016000820151610bef6000850182610c79565b506020820151610c026020850182610c79565b50505050565b60006080830160008301518482036000860152610c258282610ad4565b9150506020830151610c3a6020860182610c79565b5060408301518482036040860152610c5282826109fa565b91505060608301518482036060860152610c6c8282610a58565b9150508091505092915050565b610c8281610f79565b82525050565b610c9181610f79565b82525050565b6000602082019050610cac600083018461098d565b92915050565b60006040820190508181036000830152610ccc818561099c565b9050610cdb6020830184610c88565b9392505050565b6000602082019050610cf76000830184610ab6565b92915050565b6000602082019050610d126000830184610ac5565b92915050565b60006020820190508181036000830152610d3181610b0d565b9050919050565b60006020820190508181036000830152610d5181610b73565b9050919050565b60006040820190508181036000830152610d728185610c08565b9050610d816020830184610c88565b9392505050565b6000604051905081810181811067ffffffffffffffff82111715610dab57600080fd5b8060405250919050565b600067ffffffffffffffff821115610dcc57600080fd5b602082029050602081019050919050565b600067ffffffffffffffff821115610df457600080fd5b602082029050602081019050919050565b600067ffffffffffffffff821115610e1c57600080fd5b602082029050602081019050919050565b600067ffffffffffffffff821115610e4457600080fd5b601f19601f8301169050602081019050919050565b6000819050602082019050919050565b6000819050602082019050919050565b6000819050602082019050919050565b600081519050919050565b600081519050919050565b600081519050919050565b600081519050919050565b6000602082019050919050565b6000602082019050919050565b6000602082019050919050565b600082825260208201905092915050565b600082825260208201905092915050565b600082825260208201905092915050565b600082825260208201905092915050565b600082825260208201905092915050565b6000610f3c82610f59565b9050919050565b60008115159050919050565b6000819050919050565b600073ffffffffffffffffffffffffffffffffffffffff82169050919050565b6000819050919050565b82818337600083830152505050565b60005b83811015610fb0578082015181840152602081019050610f95565b83811115610fbf576000848401525b50505050565b6000601f19601f8301169050919050565b610fdf81610f31565b8114610fea57600080fd5b50565b610ff681610f43565b811461100157600080fd5b50565b61100d81610f4f565b811461101857600080fd5b50565b61102481610f79565b811461102f57600080fd5b5056fea365627a7a7231582048fb4881ec9800df92762eec65a58efe369693ec3dce89178b9785408c6aaefb6c6578706572696d656e74616cf564736f6c634300050c0040",
  "source": "pragma solidity >= 0.5.0 < 0.7.0;\npragma experimental ABIEncoderV2;\n\nimport \"./ECRingSignature.sol\";\n\ncontract DataSharingContract {\n\n    address public owner;\n    bytes32 public dataHash;\n    address private ecRingSignatureContractAddress;\n\n    /**\n     * @dev Store all the data consumers by their hidden addresses\n    */\n    mapping(address => bool) public hiddenAddressControlList;\n\n    event addNewDataCustomerEvent(address);\n    event removeDataCustomerEvent(address);\n\n    constructor(address _ecRingSignatureContractAddress) public {\n        owner = msg.sender;\n        ecRingSignatureContractAddress = _ecRingSignatureContractAddress;\n    }\n\n\n    /**\n     * @dev Register the hash of data into the contract\n     * @param _dataHash: The hash of data\n    */\n\n    function setDataHash(bytes32 _dataHash) public {\n        dataHash = _dataHash;\n    }\n\n    /**\n     * @dev Add a new data consumer\n     * @param newCustomer: the hidden address of the new user\n    */\n\n    function addNewDataCustomer(address newCustomer) public {\n        require(msg.sender== owner, \"Only owner can add new revocation members\");\n        hiddenAddressControlList[newCustomer] = true;\n\n        emit addNewDataCustomerEvent(newCustomer);\n\n    }\n\n    /**\n     * @dev Remove the hidden address of a consumer\n     * @param customer: the address of the consumer\n    */\n\n\n    function removeDataCustomer(address customer) public {\n        require(msg.sender== owner, \"Only owner can delete revocation members\");\n        delete hiddenAddressControlList[customer];\n\n        emit removeDataCustomerEvent(customer);\n    }\n\n\n    /**\n     * @dev Verify the signature provided by a data consumer\n     * @param sig: the signature\n     * @param pks: the list of the ring's public keys\n     * @param ringSize: the size of the ring\n    */\n\n\n    function verifyUserEligibility(ECRingSignature.JGSignature memory sig, ECSecp256k1.CurveElement[] memory pks, uint256 ringSize) public returns(bool){\n        ECRingSignature ecRingSignature = ECRingSignature(ecRingSignatureContractAddress);\n        ecRingSignature.setPublicKeyList(pks, ringSize);\n\n        return ecRingSignature.ringVerify(sig, ringSize);\n    }\n}\n",
  "sourcePath": "C:/PHD/Dapps/AnonymousAuditableDataSharing/contracts/DataSharingContract.sol",
  "compiler": {
    "name": "solc",
    "version": "0.5.12+commit.7709ece9.Emscripten.clang"
  },
  "schemaVersion": "3.0.20",
  "updatedAt": "2019-12-28T01:46:31.800Z",
  "devdoc": {
    "methods": {
      "addNewDataCustomer(address)": {
        "details": "Add a new data consumer",
        "params": {
          "newCustomer": ": the hidden address of the new user"
        }
      },
      "removeDataCustomer(address)": {
        "details": "Remove the hidden address of a consumer",
        "params": {
          "customer": ": the address of the consumer"
        }
      },
      "setDataHash(bytes32)": {
        "details": "Register the hash of data into the contract",
        "params": {
          "_dataHash": ": The hash of data"
        }
      },
      "verifyUserEligibility((string,uint256,(uint256,uint256)[],uint256[]),(uint256,uint256)[],uint256)": {
        "details": "Verify the signature provided by a data consumer",
        "params": {
          "pks": ": the list of the ring's public keys",
          "ringSize": ": the size of the ring",
          "sig": ": the signature"
        }
      }
    }
  },
  "userdoc": {
    "methods": {}
  }
}