{
  "contractName": "ECRingSignature",
  "abi": [
    {
      "constant": true,
      "inputs": [
        {
          "internalType": "uint256",
          "name": "privKey",
          "type": "uint256"
        }
      ],
      "name": "derivePubKey",
      "outputs": [
        {
          "components": [
            {
              "internalType": "uint256",
              "name": "X",
              "type": "uint256"
            },
            {
              "internalType": "uint256",
              "name": "Y",
              "type": "uint256"
            }
          ],
          "internalType": "struct ECSecp256k1.CurveElement",
          "name": "",
          "type": "tuple"
        }
      ],
      "payable": false,
      "stateMutability": "pure",
      "type": "function"
    },
    {
      "constant": true,
      "inputs": [
        {
          "components": [
            {
              "internalType": "uint256",
              "name": "X",
              "type": "uint256"
            },
            {
              "internalType": "uint256",
              "name": "Y",
              "type": "uint256"
            }
          ],
          "internalType": "struct ECSecp256k1.CurveElement",
          "name": "e1",
          "type": "tuple"
        },
        {
          "components": [
            {
              "internalType": "uint256",
              "name": "X",
              "type": "uint256"
            },
            {
              "internalType": "uint256",
              "name": "Y",
              "type": "uint256"
            }
          ],
          "internalType": "struct ECSecp256k1.CurveElement",
          "name": "e2",
          "type": "tuple"
        }
      ],
      "name": "ecAdd",
      "outputs": [
        {
          "components": [
            {
              "internalType": "uint256",
              "name": "X",
              "type": "uint256"
            },
            {
              "internalType": "uint256",
              "name": "Y",
              "type": "uint256"
            }
          ],
          "internalType": "struct ECSecp256k1.CurveElement",
          "name": "",
          "type": "tuple"
        }
      ],
      "payable": false,
      "stateMutability": "pure",
      "type": "function"
    },
    {
      "constant": true,
      "inputs": [
        {
          "components": [
            {
              "internalType": "uint256",
              "name": "X",
              "type": "uint256"
            },
            {
              "internalType": "uint256",
              "name": "Y",
              "type": "uint256"
            }
          ],
          "internalType": "struct ECSecp256k1.CurveElement",
          "name": "e1",
          "type": "tuple"
        },
        {
          "components": [
            {
              "internalType": "uint256",
              "name": "X",
              "type": "uint256"
            },
            {
              "internalType": "uint256",
              "name": "Y",
              "type": "uint256"
            }
          ],
          "internalType": "struct ECSecp256k1.CurveElement",
          "name": "e2",
          "type": "tuple"
        }
      ],
      "name": "ecEqual",
      "outputs": [
        {
          "internalType": "bool",
          "name": "",
          "type": "bool"
        }
      ],
      "payable": false,
      "stateMutability": "pure",
      "type": "function"
    },
    {
      "constant": true,
      "inputs": [
        {
          "internalType": "uint256",
          "name": "k",
          "type": "uint256"
        },
        {
          "components": [
            {
              "internalType": "uint256",
              "name": "X",
              "type": "uint256"
            },
            {
              "internalType": "uint256",
              "name": "Y",
              "type": "uint256"
            }
          ],
          "internalType": "struct ECSecp256k1.CurveElement",
          "name": "e",
          "type": "tuple"
        }
      ],
      "name": "ecMul",
      "outputs": [
        {
          "components": [
            {
              "internalType": "uint256",
              "name": "X",
              "type": "uint256"
            },
            {
              "internalType": "uint256",
              "name": "Y",
              "type": "uint256"
            }
          ],
          "internalType": "struct ECSecp256k1.CurveElement",
          "name": "",
          "type": "tuple"
        }
      ],
      "payable": false,
      "stateMutability": "pure",
      "type": "function"
    },
    {
      "constant": true,
      "inputs": [
        {
          "components": [
            {
              "internalType": "uint256",
              "name": "X",
              "type": "uint256"
            },
            {
              "internalType": "uint256",
              "name": "Y",
              "type": "uint256"
            }
          ],
          "internalType": "struct ECSecp256k1.CurveElement",
          "name": "e1",
          "type": "tuple"
        },
        {
          "components": [
            {
              "internalType": "uint256",
              "name": "X",
              "type": "uint256"
            },
            {
              "internalType": "uint256",
              "name": "Y",
              "type": "uint256"
            }
          ],
          "internalType": "struct ECSecp256k1.CurveElement",
          "name": "e2",
          "type": "tuple"
        }
      ],
      "name": "ecSub",
      "outputs": [
        {
          "components": [
            {
              "internalType": "uint256",
              "name": "X",
              "type": "uint256"
            },
            {
              "internalType": "uint256",
              "name": "Y",
              "type": "uint256"
            }
          ],
          "internalType": "struct ECSecp256k1.CurveElement",
          "name": "",
          "type": "tuple"
        }
      ],
      "payable": false,
      "stateMutability": "pure",
      "type": "function"
    },
    {
      "constant": true,
      "inputs": [
        {
          "internalType": "uint256",
          "name": "",
          "type": "uint256"
        }
      ],
      "name": "pks",
      "outputs": [
        {
          "internalType": "uint256",
          "name": "X",
          "type": "uint256"
        },
        {
          "internalType": "uint256",
          "name": "Y",
          "type": "uint256"
        }
      ],
      "payable": false,
      "stateMutability": "view",
      "type": "function"
    },
    {
      "constant": true,
      "inputs": [
        {
          "internalType": "uint256",
          "name": "seed",
          "type": "uint256"
        }
      ],
      "name": "randomElement",
      "outputs": [
        {
          "components": [
            {
              "internalType": "uint256",
              "name": "X",
              "type": "uint256"
            },
            {
              "internalType": "uint256",
              "name": "Y",
              "type": "uint256"
            }
          ],
          "internalType": "struct ECSecp256k1.CurveElement",
          "name": "",
          "type": "tuple"
        }
      ],
      "payable": false,
      "stateMutability": "view",
      "type": "function"
    },
    {
      "constant": false,
      "inputs": [
        {
          "components": [
            {
              "internalType": "uint256",
              "name": "X",
              "type": "uint256"
            },
            {
              "internalType": "uint256",
              "name": "Y",
              "type": "uint256"
            }
          ],
          "internalType": "struct ECSecp256k1.CurveElement[]",
          "name": "pkeys",
          "type": "tuple[]"
        },
        {
          "internalType": "uint256",
          "name": "listSize",
          "type": "uint256"
        }
      ],
      "name": "setPublicKeyList",
      "outputs": [],
      "payable": false,
      "stateMutability": "nonpayable",
      "type": "function"
    },
    {
      "constant": true,
      "inputs": [
        {
          "internalType": "uint256",
          "name": "ringSize",
          "type": "uint256"
        },
        {
          "internalType": "string",
          "name": "data",
          "type": "string"
        },
        {
          "internalType": "uint256",
          "name": "sk",
          "type": "uint256"
        },
        {
          "internalType": "uint256",
          "name": "indexS",
          "type": "uint256"
        }
      ],
      "name": "ringSign",
      "outputs": [
        {
          "components": [
            {
              "internalType": "string",
              "name": "data",
              "type": "string"
            },
            {
              "internalType": "uint256",
              "name": "delta",
              "type": "uint256"
            },
            {
              "components": [
                {
                  "internalType": "uint256",
                  "name": "X",
                  "type": "uint256"
                },
                {
                  "internalType": "uint256",
                  "name": "Y",
                  "type": "uint256"
                }
              ],
              "internalType": "struct ECSecp256k1.CurveElement[]",
              "name": "RList",
              "type": "tuple[]"
            },
            {
              "internalType": "uint256[]",
              "name": "hashList",
              "type": "uint256[]"
            }
          ],
          "internalType": "struct ECRingSignature.JGSignature",
          "name": "",
          "type": "tuple"
        }
      ],
      "payable": false,
      "stateMutability": "view",
      "type": "function"
    },
    {
      "constant": true,
      "inputs": [
        {
          "components": [
            {
              "internalType": "string",
              "name": "data",
              "type": "string"
            },
            {
              "internalType": "uint256",
              "name": "delta",
              "type": "uint256"
            },
            {
              "components": [
                {
                  "internalType": "uint256",
                  "name": "X",
                  "type": "uint256"
                },
                {
                  "internalType": "uint256",
                  "name": "Y",
                  "type": "uint256"
                }
              ],
              "internalType": "struct ECSecp256k1.CurveElement[]",
              "name": "RList",
              "type": "tuple[]"
            },
            {
              "internalType": "uint256[]",
              "name": "hashList",
              "type": "uint256[]"
            }
          ],
          "internalType": "struct ECRingSignature.JGSignature",
          "name": "sig",
          "type": "tuple"
        },
        {
          "internalType": "uint256",
          "name": "ringSize",
          "type": "uint256"
        }
      ],
      "name": "ringVerify",
      "outputs": [
        {
          "internalType": "bool",
          "name": "",
          "type": "bool"
        }
      ],
      "payable": false,
      "stateMutability": "view",
      "type": "function"
    }
  ],
  "bytecode": "0x608060405234801561001057600080fd5b506122b3806100206000396000f3fe608060405234801561001057600080fd5b506004361061009e5760003560e01c8063b5cd561811610066578063b5cd561814610193578063bc9e2bcf146101af578063cecd7863146101df578063d499b2c31461020f578063e650ccc2146102405761009e565b80637c5ed4d9146100a3578063813fdd78146100d35780639601349e146101035780639d59808114610133578063b29673c214610163575b600080fd5b6100bd60048036036100b89190810190611aa4565b610270565b6040516100ca9190611fe9565b60405180910390f35b6100ed60048036036100e89190810190611a7b565b6105c1565b6040516100fa9190611fce565b60405180910390f35b61011d60048036036101189190810190611a27565b610633565b60405161012a9190611f53565b60405180910390f35b61014d60048036036101489190810190611b1f565b61084e565b60405161015a9190611fce565b60405180910390f35b61017d600480360361017891908101906119eb565b6108b2565b60405161018a9190611fce565b60405180910390f35b6101ad60048036036101a89190810190611997565b61091f565b005b6101c960048036036101c49190810190611a7b565b610997565b6040516101d69190611fce565b60405180910390f35b6101f960048036036101f491908101906119eb565b610a32565b6040516102069190611f53565b60405180910390f35b61022960048036036102249190810190611a7b565b610a6b565b60405161023792919061200b565b60405180910390f35b61025a600480360361025591908101906119eb565b610a9c565b6040516102679190611fce565b60405180910390f35b61027861155d565b6060856040519080825280602002602001820160405280156102b457816020015b6102a1611585565b8152602001906001900390816102995790505b5090506060866040519080825280602002602001820160405280156102e85781602001602082028038833980820191505090505b50905060008090506102f861159f565b60405180604001604052807f79be667ef9dcbbac55a06295ce870b07029bfcdb2dce28d959f2815b16f8179881526020017f483ada7726a3c4655da4fbfc0e1108a8fd17b448a68554199c47d08ffb10d4b8815250905060008061035a61159f565b61036261159f565b61036a61159f565b6040518060400160405280600081526020016000815250915060008090505b8e8110156104a6578b81146104995744816040516020016103ab929190611f27565b6040516020818303038152906040528051906020012060001c95506103d0868861084e565b9350838a82815181106103df57fe5b60200260200101819052508d8460000151856020015160405160200161040793929190611eb5565b6040516020818303038152906040528051906020012060001c9450610468856000036000838154811061043657fe5b90600052602060002090600202016040518060400160405290816000820154815260200160018201548152505061084e565b91506104748383610a9c565b92508489828151811061048357fe5b602002602001018181525050848d028601880197505b8080600101915050610389565b50448b6040516020016104ba929190611f27565b6040516020818303038152906040528051906020012060001c945084870196507ffffffffffffffffffffffffffffffffffffffffffffffffffffffffefffffc2f878161050357fe5b06965061050e61159f565b610518868861084e565b90506105248382610a9c565b9250828a8d8151811061053357fe5b60200260200101819052508d8360000151846020015160405160200161055b93929190611eb5565b6040516020818303038152906040528051906020012060001c898d8151811061058057fe5b60200260200101818152505060405180608001604052808f81526020018981526020018b81526020018a8152509a5050505050505050505050949350505050565b6105c961159f565b600082446040516020016105de929190611f27565b6040516020818303038152906040528051906020012060001c905061062b7ffffffffffffffffffffffffffffffffffffffffffffffffffffffffefffffc2f828161062557fe5b06610997565b915050919050565b600061063d61159f565b60405180604001604052807f79be667ef9dcbbac55a06295ce870b07029bfcdb2dce28d959f2815b16f8179881526020017f483ada7726a3c4655da4fbfc0e1108a8fd17b448a68554199c47d08ffb10d4b88152509050600080600090505b84811015610745578560000151866040015182815181106106b957fe5b602002602001015160000151876040015183815181106106d557fe5b6020026020010151602001516040516020016106f393929190611eee565b6040516020818303038152906040528051906020012060001c91508560600151818151811061071e57fe5b602002602001015182146107385760009350505050610848565b808060010191505061069c565b5061074e61159f565b61075661159f565b61076487602001518561084e565b91506040518060400160405280600081526020016000815250905060008090505b86811015610822576107ae82896040015183815181106107a157fe5b6020026020010151610a9c565b91506108138261080e8a6060015184815181106107c757fe5b6020026020010151600085815481106107dc57fe5b90600052602060002090600202016040518060400160405290816000820154815260200160018201548152505061084e565b610a9c565b91508080600101915050610785565b5061082d8282610a32565b1561083f576001945050505050610848565b60009450505050505b92915050565b61085661159f565b60008061088f858560000151866020015160007ffffffffffffffffffffffffffffffffffffffffffffffffffffffffefffffc2f610b09565b915091506040518060400160405280838152602001828152509250505092915050565b6108ba61159f565b6000806108fc856000015186602001518660000151876020015160007ffffffffffffffffffffffffffffffffffffffffffffffffffffffffefffffc2f610b43565b915091506040518060400160405280838152602001828152509250505092915050565b60008090505b8181101561099257600083828151811061093b57fe5b60200260200101519080600181540180825580915050906001820390600052602060002090600202016000909192909190915060008201518160000155602082015181600101555050508080600101915050610925565b505050565b61099f61159f565b600080610a10847f79be667ef9dcbbac55a06295ce870b07029bfcdb2dce28d959f2815b16f817987f483ada7726a3c4655da4fbfc0e1108a8fd17b448a68554199c47d08ffb10d4b860007ffffffffffffffffffffffffffffffffffffffffffffffffffffffffefffffc2f610b09565b9150915060405180604001604052808381526020018281525092505050919050565b600081600001518360000151148015610a52575081602001518360200151145b15610a605760019050610a65565b600090505b92915050565b60008181548110610a7857fe5b90600052602060002090600202016000915090508060000154908060010154905082565b610aa461159f565b600080610ae6856000015186602001518660000151876020015160007ffffffffffffffffffffffffffffffffffffffffffffffffffffffffefffffc2f610b77565b915091506040518060400160405280838152602001828152509250505092915050565b6000806000806000610b208a8a8a60018b8b610bec565b925092509250610b3283838389610d80565b945094505050509550959350505050565b600080600080610b54888887610ddb565b91509150610b668a8a84848a8a610b77565b935093505050965096945050505050565b600080600080905060008090506000809050888b1415610bb057610b9f8b8b60018a8a610df7565b809350819450829550505050610bce565b610bc18b8b60018c8c60018c610fc1565b8093508194508295505050505b610bda83838389610d80565b94509450505050965096945050505050565b600080600080899050610bfd6115b9565b8981600060038110610c0b57fe5b6020020181815250508881600160038110610c2257fe5b6020020181815250508781600260038110610c3957fe5b6020020181815250506000809050600080905060006001905060008e1415610c6e578282829750975097505050505050610d74565b5b60008514610d655760006001861614610cd157610cc483838387600060038110610c9557fe5b602002015188600160038110610ca757fe5b602002015189600260038110610cb957fe5b60200201518f610fc1565b8093508194508295505050505b60028581610cdb57fe5b049450610d1e84600060038110610cee57fe5b602002015185600160038110610d0057fe5b602002015186600260038110610d1257fe5b60200201518d8d610df7565b86600060038110610d2b57fe5b6020020187600160038110610d3c57fe5b6020020188600260038110610d4d57fe5b60200201838152508381525083815250505050610c6f565b82828297509750975050505050505b96509650969350505050565b6000806000610d8f8585611496565b905060008480610d9b57fe5b828309905060008580610daa57fe5b828a09905060008680610db957fe5b8780610dc157fe5b8486098a0990508181955095505050505094509492505050565b600080848385850381610dea57fe5b0691509150935093915050565b600080600080861415610e1257878787925092509250610fb6565b610e1a6115b9565b8480610e2257fe5b898a0981600060038110610e3257fe5b6020020181815250508480610e4357fe5b88890981600160038110610e5357fe5b6020020181815250508480610e6457fe5b87880981600260038110610e7457fe5b60200201818152505060008580610e8757fe5b8680610e8f57fe5b83600160038110610e9c57fe5b60200201518c09600409905060008680610eb257fe5b8780610eba57fe5b8880610ec257fe5b85600260038110610ecf57fe5b602002015186600260038110610ee157fe5b6020020151098a098880610ef157fe5b85600060038110610efe57fe5b602002015160030908905060008780610f1357fe5b8880610f1b57fe5b84850889038980610f2857fe5b84850908905060008880610f3857fe5b8980610f4057fe5b8a80610f4857fe5b87600160038110610f5557fe5b602002015188600160038110610f6757fe5b6020020151096008098a038a80610f7a57fe5b8b80610f8257fe5b858d038808860908905060008980610f9657fe5b8a80610f9e57fe5b8d8f0960020990508282829850985098505050505050505b955095509592505050565b6000806000808a148015610fd55750600089145b15610fe857868686925092509250611489565b600087148015610ff85750600086145b1561100b57898989925092509250611489565b6110136115db565b848061101b57fe5b898a098160006004811061102b57fe5b602002018181525050848061103c57fe5b8160006004811061104957fe5b60200201518a098160016004811061105d57fe5b602002018181525050848061106e57fe5b8687098160026004811061107e57fe5b602002018181525050848061108f57fe5b8160026004811061109c57fe5b60200201518709816003600481106110b057fe5b602002018181525050604051806080016040528086806110cc57fe5b836002600481106110d957fe5b60200201518e09815260200186806110ed57fe5b836003600481106110fa57fe5b60200201518d098152602001868061110e57fe5b8360006004811061111b57fe5b60200201518b098152602001868061112f57fe5b8360016004811061113c57fe5b60200201518a0981525090508060026004811061115557fe5b60200201518160006004811061116757fe5b60200201511415611211578060036004811061117f57fe5b60200201518160016004811061119157fe5b6020020151146111d6576040517f08c379a00000000000000000000000000000000000000000000000000000000081526004016111cd90611fae565b60405180910390fd5b6040517f08c379a000000000000000000000000000000000000000000000000000000000815260040161120890611f6e565b60405180910390fd5b6112196115db565b858061122157fe5b8260006004811061122e57fe5b602002015187038360026004811061124257fe5b6020020151088160006004811061125557fe5b602002018181525050858061126657fe5b8260016004811061127357fe5b602002015187038360036004811061128757fe5b6020020151088160016004811061129a57fe5b60200201818152505085806112ab57fe5b816000600481106112b857fe5b6020020151826000600481106112ca57fe5b602002015109816002600481106112dd57fe5b60200201818152505085806112ee57fe5b816000600481106112fb57fe5b60200201518260026004811061130d57fe5b6020020151098160036004811061132057fe5b6020020181815250506000868061133357fe5b8260036004811061134057fe5b60200201518803888061134f57fe5b8460016004811061135c57fe5b60200201518560016004811061136e57fe5b602002015109089050868061137f57fe5b878061138757fe5b888061138f57fe5b8460026004811061139c57fe5b6020020151866000600481106113ae57fe5b602002015109600209880382089050600087806113c757fe5b88806113cf57fe5b838a038a806113da57fe5b866002600481106113e757fe5b6020020151886000600481106113f957fe5b602002015109088460016004811061140d57fe5b6020020151099050878061141d57fe5b888061142557fe5b8460036004811061143257fe5b60200201518660016004811061144457fe5b6020020151098903820890506000888061145a57fe5b898061146257fe5b8b8f098560006004811061147257fe5b602002015109905082828297509750975050505050505b9750975097945050505050565b6000808314806114a557508183145b806114b05750600082145b156114f0576040517f08c379a00000000000000000000000000000000000000000000000000000000081526004016114e790611f8e565b60405180910390fd5b60008090506000600190506000849050600086905060005b6000821461154f5781838161151957fe5b04905083878061152557fe5b888061152d57fe5b8684098903870880955081965050508182820284038093508194505050611508565b849550505050505092915050565b6040518060800160405280606081526020016000815260200160608152602001606081525090565b604051806040016040528060008152602001600081525090565b604051806040016040528060008152602001600081525090565b6040518060600160405280600390602082028038833980820191505090505090565b6040518060800160405280600490602082028038833980820191505090505090565b600082601f83011261160e57600080fd5b813561162161161c82612061565b612034565b9150818183526020840193506020810190508385604084028201111561164657600080fd5b60005b83811015611676578161165c888261182e565b845260208401935060408301925050600181019050611649565b5050505092915050565b600082601f83011261169157600080fd5b81356116a461169f82612089565b612034565b915081818352602084019350602081019050838560408402820111156116c957600080fd5b60005b838110156116f957816116df888261182e565b8452602084019350604083019250506001810190506116cc565b5050505092915050565b600082601f83011261171457600080fd5b8135611727611722826120b1565b612034565b9150818183526020840193506020810190508385602084028201111561174c57600080fd5b60005b8381101561177c57816117628882611982565b84526020840193506020830192505060018101905061174f565b5050505092915050565b600082601f83011261179757600080fd5b81356117aa6117a5826120d9565b612034565b915080825260208301602083018583830111156117c657600080fd5b6117d18382846121fc565b50505092915050565b600082601f8301126117eb57600080fd5b81356117fe6117f982612105565b612034565b9150808252602083016020830185838301111561181a57600080fd5b6118258382846121fc565b50505092915050565b60006040828403121561184057600080fd5b61184a6040612034565b9050600061185a84828501611982565b600083015250602061186e84828501611982565b60208301525092915050565b60006040828403121561188c57600080fd5b6118966040612034565b905060006118a684828501611982565b60008301525060206118ba84828501611982565b60208301525092915050565b6000608082840312156118d857600080fd5b6118e26080612034565b9050600082013567ffffffffffffffff8111156118fe57600080fd5b61190a84828501611786565b600083015250602061191e84828501611982565b602083015250604082013567ffffffffffffffff81111561193e57600080fd5b61194a848285016115fd565b604083015250606082013567ffffffffffffffff81111561196a57600080fd5b61197684828501611703565b60608301525092915050565b60008135905061199181612259565b92915050565b600080604083850312156119aa57600080fd5b600083013567ffffffffffffffff8111156119c457600080fd5b6119d085828601611680565b92505060206119e185828601611982565b9150509250929050565b600080608083850312156119fe57600080fd5b6000611a0c8582860161187a565b9250506040611a1d8582860161187a565b9150509250929050565b60008060408385031215611a3a57600080fd5b600083013567ffffffffffffffff811115611a5457600080fd5b611a60858286016118c6565b9250506020611a7185828601611982565b9150509250929050565b600060208284031215611a8d57600080fd5b6000611a9b84828501611982565b91505092915050565b60008060008060808587031215611aba57600080fd5b6000611ac887828801611982565b945050602085013567ffffffffffffffff811115611ae557600080fd5b611af1878288016117da565b9350506040611b0287828801611982565b9250506060611b1387828801611982565b91505092959194509250565b60008060608385031215611b3257600080fd5b6000611b4085828601611982565b9250506020611b518582860161187a565b9150509250929050565b6000611b678383611de0565b60408301905092915050565b6000611b7f8383611e80565b60208301905092915050565b6000611b9682612151565b611ba08185612197565b9350611bab83612131565b8060005b83811015611bdc578151611bc38882611b5b565b9750611bce8361217d565b925050600181019050611baf565b5085935050505092915050565b6000611bf48261215c565b611bfe81856121a8565b9350611c0983612141565b8060005b83811015611c3a578151611c218882611b73565b9750611c2c8361218a565b925050600181019050611c0d565b5085935050505092915050565b611c50816121e6565b82525050565b6000611c6182612172565b611c6b81856121db565b9350611c7b81856020860161220b565b80840191505092915050565b6000611c9282612167565b611c9c81856121b9565b9350611cac81856020860161220b565b611cb581612248565b840191505092915050565b6000611ccb82612167565b611cd581856121db565b9350611ce581856020860161220b565b80840191505092915050565b6000611cfe6012836121ca565b91507f55736520646f75626c6520696e737465616400000000000000000000000000006000830152602082019050919050565b6000611d3e600e836121ca565b91507f496e76616c6964206e756d6265720000000000000000000000000000000000006000830152602082019050919050565b6000611d7e600a836121ca565b91507f57726f6e672064617461000000000000000000000000000000000000000000006000830152602082019050919050565b604082016000820151611dc76000850182611e80565b506020820151611dda6020850182611e80565b50505050565b604082016000820151611df66000850182611e80565b506020820151611e096020850182611e80565b50505050565b60006080830160008301518482036000860152611e2c8282611c87565b9150506020830151611e416020860182611e80565b5060408301518482036040860152611e598282611b8b565b91505060608301518482036060860152611e738282611be9565b9150508091505092915050565b611e89816121f2565b82525050565b611e98816121f2565b82525050565b611eaf611eaa826121f2565b61223e565b82525050565b6000611ec18286611c56565b9150611ecd8285611e9e565b602082019150611edd8284611e9e565b602082019150819050949350505050565b6000611efa8286611cc0565b9150611f068285611e9e565b602082019150611f168284611e9e565b602082019150819050949350505050565b6000611f338285611e9e565b602082019150611f438284611e9e565b6020820191508190509392505050565b6000602082019050611f686000830184611c47565b92915050565b60006020820190508181036000830152611f8781611cf1565b9050919050565b60006020820190508181036000830152611fa781611d31565b9050919050565b60006020820190508181036000830152611fc781611d71565b9050919050565b6000604082019050611fe36000830184611db1565b92915050565b600060208201905081810360008301526120038184611e0f565b905092915050565b60006040820190506120206000830185611e8f565b61202d6020830184611e8f565b9392505050565b6000604051905081810181811067ffffffffffffffff8211171561205757600080fd5b8060405250919050565b600067ffffffffffffffff82111561207857600080fd5b602082029050602081019050919050565b600067ffffffffffffffff8211156120a057600080fd5b602082029050602081019050919050565b600067ffffffffffffffff8211156120c857600080fd5b602082029050602081019050919050565b600067ffffffffffffffff8211156120f057600080fd5b601f19601f8301169050602081019050919050565b600067ffffffffffffffff82111561211c57600080fd5b601f19601f8301169050602081019050919050565b6000819050602082019050919050565b6000819050602082019050919050565b600081519050919050565b600081519050919050565b600081519050919050565b600081519050919050565b6000602082019050919050565b6000602082019050919050565b600082825260208201905092915050565b600082825260208201905092915050565b600082825260208201905092915050565b600082825260208201905092915050565b600081905092915050565b60008115159050919050565b6000819050919050565b82818337600083830152505050565b60005b8381101561222957808201518184015260208101905061220e565b83811115612238576000848401525b50505050565b6000819050919050565b6000601f19601f8301169050919050565b612262816121f2565b811461226d57600080fd5b5056fea365627a7a72315820f3ae229cf6d2689ae79d969a1dd38f19aabdd3cbaf1f3ecc1cecbad7001e35e56c6578706572696d656e74616cf564736f6c634300050c0040",
  "source": "pragma solidity >= 0.5.0 < 0.7.0;\r\npragma experimental ABIEncoderV2;\r\n\r\nimport \"./ECSecp256k1.sol\";\r\n\r\n/**\r\n * @dev Implement the ring signature scheme described in https://eprint.iacr.org/2003/067.pdf\r\n*/\r\n\r\ncontract ECRingSignature is ECSecp256k1 {\r\n\r\n\r\n    /**\r\n     * @dev the format of the signature is described in https://eprint.iacr.org/2003/067.pdf\r\n    */\r\n    struct JGSignature {\r\n        string data;\r\n        uint256 delta;\r\n        ECSecp256k1.CurveElement[] RList;\r\n        uint256[] hashList;\r\n    }\r\n\r\n\r\n    // List of public keys in the ring\r\n\r\n    ECSecp256k1.CurveElement[] public pks;\r\n\r\n    function setPublicKeyList(ECSecp256k1.CurveElement[] memory pkeys, uint256 listSize) public {\r\n        for(uint256 i = 0; i < listSize; i++){\r\n            pks.push(pkeys[i]);\r\n        }\r\n    }\r\n\r\n\r\n    /**\r\n     * @dev Implementing the signing Operation\r\n     * @param ringSize: the size of the ringSign\r\n     * @param data: the signed data\r\n     * @param sk: the private key of signer\r\n     * @param indexS: the index of the signer in the ring\r\n     * @return (signature)\r\n    */\r\n\r\n    function ringSign(uint256 ringSize, string memory data, uint256 sk, uint256 indexS ) public view returns(JGSignature memory) {\r\n\r\n        ECSecp256k1.CurveElement[] memory RList = new ECSecp256k1.CurveElement[](ringSize);\r\n        uint256[] memory hashList = new uint256[](ringSize);\r\n        uint256 delta = 0;\r\n\r\n\r\n        ECSecp256k1.CurveElement memory G;\r\n        G = ECSecp256k1.CurveElement(ECSecp256k1.GX, ECSecp256k1.GY);\r\n\r\n        uint256 a;\r\n        uint256 hi;\r\n\r\n        ECSecp256k1.CurveElement memory Ri;\r\n        ECSecp256k1.CurveElement memory Rs;\r\n\r\n        ECSecp256k1.CurveElement memory hiPK;\r\n\r\n        Rs = ECSecp256k1.CurveElement(0,0);\r\n\r\n        for(uint256 i = 0; i < ringSize; i++){\r\n            if(i != indexS){\r\n                // Generate a random value a\r\n\r\n                a =  uint256(keccak256(abi.encodePacked( block.difficulty, i)));\r\n\r\n                Ri = ECSecp256k1.ecMul(a, G);\r\n                RList[i]   = Ri;\r\n\r\n                hi = uint256(keccak256(abi.encodePacked(data, Ri.X, Ri.Y)));\r\n                hiPK = ECSecp256k1.ecMul(-hi, pks[i]);\r\n                Rs = ECSecp256k1.ecAdd(Rs, hiPK);\r\n\r\n                hashList[i] = hi;\r\n                delta +=  a + sk* hi;\r\n\r\n            }\r\n        }\r\n\r\n        // Generate a random number a\r\n        a = uint256(keccak256(abi.encodePacked(block.difficulty, indexS)));\r\n\r\n        delta += a;\r\n        delta = delta % ECSecp256k1.PP;\r\n\r\n        ECSecp256k1.CurveElement memory Ga = ECSecp256k1.ecMul(a, G);\r\n        Rs = ECSecp256k1.ecAdd(Rs, Ga);\r\n\r\n        RList[indexS] = Rs;\r\n        hashList[indexS] = uint256(keccak256(abi.encodePacked(data, Rs.X, Rs.Y)));\r\n\r\n        return JGSignature(data, delta, RList, hashList);\r\n    }\r\n\r\n    /**\r\n     * @dev Verify the validity of a ring signature\r\n     * @param sig: the signature\r\n     * @param ringSize: the size of the ringVerify\r\n    */\r\n\r\n\r\n    function ringVerify(JGSignature memory sig, uint256 ringSize) public view returns(bool){\r\n        ECSecp256k1.CurveElement memory G;\r\n        G = ECSecp256k1.CurveElement(ECSecp256k1.GX, ECSecp256k1.GY);\r\n\r\n        uint256 hi;\r\n        for(uint256 i = 0; i < ringSize; i++){\r\n            hi = uint256(keccak256(abi.encodePacked(sig.data, sig.RList[i].X, sig.RList[i].Y)));\r\n            if(hi != sig.hashList[i]){\r\n                return false;\r\n            }\r\n        }\r\n\r\n\r\n        ECSecp256k1.CurveElement memory firstComparingElement;\r\n        ECSecp256k1.CurveElement memory secondComparingElement;\r\n\r\n\r\n        firstComparingElement = ECSecp256k1.ecMul(sig.delta, G);\r\n\r\n\r\n        secondComparingElement = ECSecp256k1.CurveElement(0, 0);\r\n        for(uint256 i = 0; i < ringSize; i++){\r\n            secondComparingElement = ECSecp256k1.ecAdd(secondComparingElement, sig.RList[i]);\r\n            secondComparingElement = ECSecp256k1.ecAdd(secondComparingElement, ECSecp256k1.ecMul(sig.hashList[i], pks[i]));\r\n        }\r\n        if(ECSecp256k1.ecEqual(firstComparingElement, secondComparingElement)) return true;\r\n        return false;\r\n\r\n    }\r\n\r\n}\r\n",
  "sourcePath": "C:\\PHD\\Dapps\\AnonymousAuditableDataSharing\\contracts\\ECRingSignature.sol",
  "compiler": {
    "name": "solc",
    "version": "0.5.12+commit.7709ece9.Emscripten.clang"
  },
  "schemaVersion": "3.0.20",
  "updatedAt": "2019-12-28T01:46:31.806Z",
  "devdoc": {
    "details": "Implement the ring signature scheme described in https://eprint.iacr.org/2003/067.pdf",
    "methods": {
      "derivePubKey(uint256)": {
        "details": "Public Key derivation from private key",
        "params": {
          "privKey": "The private key"
        },
        "return": "(CurveElement) The Public Key"
      },
      "ecAdd((uint256,uint256),(uint256,uint256))": {
        "details": "Add two curve elements",
        "params": {
          "e1": ": the first element",
          "e2": ": the second element"
        }
      },
      "ecEqual((uint256,uint256),(uint256,uint256))": {
        "details": "Compairing two elements onn the Curve",
        "params": {
          "e1": ": the first element",
          "e2": ": the second element"
        }
      },
      "ecMul(uint256,(uint256,uint256))": {
        "details": "Multiply an element on the curve with an interger",
        "params": {
          "e": ": the curve element",
          "k": ": the interger"
        },
        "return": "Return the value"
      },
      "ecSub((uint256,uint256),(uint256,uint256))": {
        "details": "Subtract a curve element by another element"
      },
      "randomElement(uint256)": {
        "params": {
          "seed": ": input"
        },
        "return": "randomBumber"
      },
      "ringSign(uint256,string,uint256,uint256)": {
        "details": "Implementing the signing Operation",
        "params": {
          "data": ": the signed data",
          "indexS": ": the index of the signer in the ring",
          "ringSize": ": the size of the ringSign",
          "sk": ": the private key of signer"
        },
        "return": "(signature)"
      },
      "ringVerify((string,uint256,(uint256,uint256)[],uint256[]),uint256)": {
        "details": "Verify the validity of a ring signature",
        "params": {
          "ringSize": ": the size of the ringVerify",
          "sig": ": the signature"
        }
      }
    }
  },
  "userdoc": {
    "methods": {
      "randomElement(uint256)": {
        "notice": "Generate a random curve element based on a given input"
      }
    }
  }
}