{
  "contractName": "ECSecp256k1",
  "abi": [
    {
      "constant": true,
      "inputs": [
        {
          "internalType": "uint256",
          "name": "privKey",
          "type": "uint256"
        }
      ],
      "name": "derivePubKey",
      "outputs": [
        {
          "components": [
            {
              "internalType": "uint256",
              "name": "X",
              "type": "uint256"
            },
            {
              "internalType": "uint256",
              "name": "Y",
              "type": "uint256"
            }
          ],
          "internalType": "struct ECSecp256k1.CurveElement",
          "name": "",
          "type": "tuple"
        }
      ],
      "payable": false,
      "stateMutability": "pure",
      "type": "function"
    },
    {
      "constant": true,
      "inputs": [
        {
          "components": [
            {
              "internalType": "uint256",
              "name": "X",
              "type": "uint256"
            },
            {
              "internalType": "uint256",
              "name": "Y",
              "type": "uint256"
            }
          ],
          "internalType": "struct ECSecp256k1.CurveElement",
          "name": "e1",
          "type": "tuple"
        },
        {
          "components": [
            {
              "internalType": "uint256",
              "name": "X",
              "type": "uint256"
            },
            {
              "internalType": "uint256",
              "name": "Y",
              "type": "uint256"
            }
          ],
          "internalType": "struct ECSecp256k1.CurveElement",
          "name": "e2",
          "type": "tuple"
        }
      ],
      "name": "ecAdd",
      "outputs": [
        {
          "components": [
            {
              "internalType": "uint256",
              "name": "X",
              "type": "uint256"
            },
            {
              "internalType": "uint256",
              "name": "Y",
              "type": "uint256"
            }
          ],
          "internalType": "struct ECSecp256k1.CurveElement",
          "name": "",
          "type": "tuple"
        }
      ],
      "payable": false,
      "stateMutability": "pure",
      "type": "function"
    },
    {
      "constant": true,
      "inputs": [
        {
          "components": [
            {
              "internalType": "uint256",
              "name": "X",
              "type": "uint256"
            },
            {
              "internalType": "uint256",
              "name": "Y",
              "type": "uint256"
            }
          ],
          "internalType": "struct ECSecp256k1.CurveElement",
          "name": "e1",
          "type": "tuple"
        },
        {
          "components": [
            {
              "internalType": "uint256",
              "name": "X",
              "type": "uint256"
            },
            {
              "internalType": "uint256",
              "name": "Y",
              "type": "uint256"
            }
          ],
          "internalType": "struct ECSecp256k1.CurveElement",
          "name": "e2",
          "type": "tuple"
        }
      ],
      "name": "ecSub",
      "outputs": [
        {
          "components": [
            {
              "internalType": "uint256",
              "name": "X",
              "type": "uint256"
            },
            {
              "internalType": "uint256",
              "name": "Y",
              "type": "uint256"
            }
          ],
          "internalType": "struct ECSecp256k1.CurveElement",
          "name": "",
          "type": "tuple"
        }
      ],
      "payable": false,
      "stateMutability": "pure",
      "type": "function"
    },
    {
      "constant": true,
      "inputs": [
        {
          "internalType": "uint256",
          "name": "k",
          "type": "uint256"
        },
        {
          "components": [
            {
              "internalType": "uint256",
              "name": "X",
              "type": "uint256"
            },
            {
              "internalType": "uint256",
              "name": "Y",
              "type": "uint256"
            }
          ],
          "internalType": "struct ECSecp256k1.CurveElement",
          "name": "e",
          "type": "tuple"
        }
      ],
      "name": "ecMul",
      "outputs": [
        {
          "components": [
            {
              "internalType": "uint256",
              "name": "X",
              "type": "uint256"
            },
            {
              "internalType": "uint256",
              "name": "Y",
              "type": "uint256"
            }
          ],
          "internalType": "struct ECSecp256k1.CurveElement",
          "name": "",
          "type": "tuple"
        }
      ],
      "payable": false,
      "stateMutability": "pure",
      "type": "function"
    },
    {
      "constant": true,
      "inputs": [
        {
          "components": [
            {
              "internalType": "uint256",
              "name": "X",
              "type": "uint256"
            },
            {
              "internalType": "uint256",
              "name": "Y",
              "type": "uint256"
            }
          ],
          "internalType": "struct ECSecp256k1.CurveElement",
          "name": "e1",
          "type": "tuple"
        },
        {
          "components": [
            {
              "internalType": "uint256",
              "name": "X",
              "type": "uint256"
            },
            {
              "internalType": "uint256",
              "name": "Y",
              "type": "uint256"
            }
          ],
          "internalType": "struct ECSecp256k1.CurveElement",
          "name": "e2",
          "type": "tuple"
        }
      ],
      "name": "ecEqual",
      "outputs": [
        {
          "internalType": "bool",
          "name": "",
          "type": "bool"
        }
      ],
      "payable": false,
      "stateMutability": "pure",
      "type": "function"
    },
    {
      "constant": true,
      "inputs": [
        {
          "internalType": "uint256",
          "name": "seed",
          "type": "uint256"
        }
      ],
      "name": "randomElement",
      "outputs": [
        {
          "components": [
            {
              "internalType": "uint256",
              "name": "X",
              "type": "uint256"
            },
            {
              "internalType": "uint256",
              "name": "Y",
              "type": "uint256"
            }
          ],
          "internalType": "struct ECSecp256k1.CurveElement",
          "name": "",
          "type": "tuple"
        }
      ],
      "payable": false,
      "stateMutability": "view",
      "type": "function"
    }
  ],
  "bytecode": "0x608060405234801561001057600080fd5b5061125d806100206000396000f3fe608060405234801561001057600080fd5b50600436106100625760003560e01c8063813fdd78146100675780639d59808114610097578063b29673c2146100c7578063bc9e2bcf146100f7578063cecd786314610127578063e650ccc214610157575b600080fd5b610081600480360361007c9190810190610f5a565b610187565b60405161008e919061118a565b60405180910390f35b6100b160048036036100ac9190810190610f83565b6101f9565b6040516100be919061118a565b60405180910390f35b6100e160048036036100dc9190810190610f1e565b61025d565b6040516100ee919061118a565b60405180910390f35b610111600480360361010c9190810190610f5a565b6102ca565b60405161011e919061118a565b60405180910390f35b610141600480360361013c9190810190610f1e565b610365565b60405161014e919061110f565b60405180910390f35b610171600480360361016c9190810190610f1e565b61039e565b60405161017e919061118a565b60405180910390f35b61018f610e5f565b600082446040516020016101a49291906110e3565b6040516020818303038152906040528051906020012060001c90506101f17ffffffffffffffffffffffffffffffffffffffffffffffffffffffffefffffc2f82816101eb57fe5b066102ca565b915050919050565b610201610e5f565b60008061023a858560000151866020015160007ffffffffffffffffffffffffffffffffffffffffffffffffffffffffefffffc2f61040b565b915091506040518060400160405280838152602001828152509250505092915050565b610265610e5f565b6000806102a7856000015186602001518660000151876020015160007ffffffffffffffffffffffffffffffffffffffffffffffffffffffffefffffc2f610445565b915091506040518060400160405280838152602001828152509250505092915050565b6102d2610e5f565b600080610343847f79be667ef9dcbbac55a06295ce870b07029bfcdb2dce28d959f2815b16f817987f483ada7726a3c4655da4fbfc0e1108a8fd17b448a68554199c47d08ffb10d4b860007ffffffffffffffffffffffffffffffffffffffffffffffffffffffffefffffc2f61040b565b9150915060405180604001604052808381526020018281525092505050919050565b600081600001518360000151148015610385575081602001518360200151145b156103935760019050610398565b600090505b92915050565b6103a6610e5f565b6000806103e8856000015186602001518660000151876020015160007ffffffffffffffffffffffffffffffffffffffffffffffffffffffffefffffc2f610479565b915091506040518060400160405280838152602001828152509250505092915050565b60008060008060006104228a8a8a60018b8b6104ee565b92509250925061043483838389610682565b945094505050509550959350505050565b6000806000806104568888876106dd565b915091506104688a8a84848a8a610479565b935093505050965096945050505050565b600080600080905060008090506000809050888b14156104b2576104a18b8b60018a8a6106f9565b8093508194508295505050506104d0565b6104c38b8b60018c8c60018c6108c3565b8093508194508295505050505b6104dc83838389610682565b94509450505050965096945050505050565b6000806000808990506104ff610e79565b898160006003811061050d57fe5b602002018181525050888160016003811061052457fe5b602002018181525050878160026003811061053b57fe5b6020020181815250506000809050600080905060006001905060008e1415610570578282829750975097505050505050610676565b5b6000851461066757600060018616146105d3576105c68383838760006003811061059757fe5b6020020151886001600381106105a957fe5b6020020151896002600381106105bb57fe5b60200201518f6108c3565b8093508194508295505050505b600285816105dd57fe5b049450610620846000600381106105f057fe5b60200201518560016003811061060257fe5b60200201518660026003811061061457fe5b60200201518d8d6106f9565b8660006003811061062d57fe5b602002018760016003811061063e57fe5b602002018860026003811061064f57fe5b60200201838152508381525083815250505050610571565b82828297509750975050505050505b96509650969350505050565b60008060006106918585610d98565b90506000848061069d57fe5b8283099050600085806106ac57fe5b828a099050600086806106bb57fe5b87806106c357fe5b8486098a0990508181955095505050505094509492505050565b6000808483858503816106ec57fe5b0691509150935093915050565b600080600080861415610714578787879250925092506108b8565b61071c610e79565b848061072457fe5b898a098160006003811061073457fe5b602002018181525050848061074557fe5b8889098160016003811061075557fe5b602002018181525050848061076657fe5b8788098160026003811061077657fe5b6020020181815250506000858061078957fe5b868061079157fe5b8360016003811061079e57fe5b60200201518c096004099050600086806107b457fe5b87806107bc57fe5b88806107c457fe5b856002600381106107d157fe5b6020020151866002600381106107e357fe5b6020020151098a0988806107f357fe5b8560006003811061080057fe5b60200201516003090890506000878061081557fe5b888061081d57fe5b8485088903898061082a57fe5b8485090890506000888061083a57fe5b898061084257fe5b8a8061084a57fe5b8760016003811061085757fe5b60200201518860016003811061086957fe5b6020020151096008098a038a8061087c57fe5b8b8061088457fe5b858d03880886090890506000898061089857fe5b8a806108a057fe5b8d8f0960020990508282829850985098505050505050505b955095509592505050565b6000806000808a1480156108d75750600089145b156108ea57868686925092509250610d8b565b6000871480156108fa5750600086145b1561090d57898989925092509250610d8b565b610915610e9b565b848061091d57fe5b898a098160006004811061092d57fe5b602002018181525050848061093e57fe5b8160006004811061094b57fe5b60200201518a098160016004811061095f57fe5b602002018181525050848061097057fe5b8687098160026004811061098057fe5b602002018181525050848061099157fe5b8160026004811061099e57fe5b60200201518709816003600481106109b257fe5b602002018181525050604051806080016040528086806109ce57fe5b836002600481106109db57fe5b60200201518e09815260200186806109ef57fe5b836003600481106109fc57fe5b60200201518d0981526020018680610a1057fe5b83600060048110610a1d57fe5b60200201518b0981526020018680610a3157fe5b83600160048110610a3e57fe5b60200201518a09815250905080600260048110610a5757fe5b602002015181600060048110610a6957fe5b60200201511415610b135780600360048110610a8157fe5b602002015181600160048110610a9357fe5b602002015114610ad8576040517f08c379a0000000000000000000000000000000000000000000000000000000008152600401610acf9061116a565b60405180910390fd5b6040517f08c379a0000000000000000000000000000000000000000000000000000000008152600401610b0a9061112a565b60405180910390fd5b610b1b610e9b565b8580610b2357fe5b82600060048110610b3057fe5b6020020151870383600260048110610b4457fe5b60200201510881600060048110610b5757fe5b6020020181815250508580610b6857fe5b82600160048110610b7557fe5b6020020151870383600360048110610b8957fe5b60200201510881600160048110610b9c57fe5b6020020181815250508580610bad57fe5b81600060048110610bba57fe5b602002015182600060048110610bcc57fe5b60200201510981600260048110610bdf57fe5b6020020181815250508580610bf057fe5b81600060048110610bfd57fe5b602002015182600260048110610c0f57fe5b60200201510981600360048110610c2257fe5b60200201818152505060008680610c3557fe5b82600360048110610c4257fe5b602002015188038880610c5157fe5b84600160048110610c5e57fe5b602002015185600160048110610c7057fe5b6020020151090890508680610c8157fe5b8780610c8957fe5b8880610c9157fe5b84600260048110610c9e57fe5b602002015186600060048110610cb057fe5b60200201510960020988038208905060008780610cc957fe5b8880610cd157fe5b838a038a80610cdc57fe5b86600260048110610ce957fe5b602002015188600060048110610cfb57fe5b6020020151090884600160048110610d0f57fe5b60200201510990508780610d1f57fe5b8880610d2757fe5b84600360048110610d3457fe5b602002015186600160048110610d4657fe5b60200201510989038208905060008880610d5c57fe5b8980610d6457fe5b8b8f0985600060048110610d7457fe5b602002015109905082828297509750975050505050505b9750975097945050505050565b600080831480610da757508183145b80610db25750600082145b15610df2576040517f08c379a0000000000000000000000000000000000000000000000000000000008152600401610de99061114a565b60405180910390fd5b60008090506000600190506000849050600086905060005b60008214610e5157818381610e1b57fe5b049050838780610e2757fe5b8880610e2f57fe5b8684098903870880955081965050508182820284038093508194505050610e0a565b849550505050505092915050565b604051806040016040528060008152602001600081525090565b6040518060600160405280600390602082028038833980820191505090505090565b6040518060800160405280600490602082028038833980820191505090505090565b600060408284031215610ecf57600080fd5b610ed960406111a5565b90506000610ee984828501610f09565b6000830152506020610efd84828501610f09565b60208301525092915050565b600081359050610f1881611203565b92915050565b60008060808385031215610f3157600080fd5b6000610f3f85828601610ebd565b9250506040610f5085828601610ebd565b9150509250929050565b600060208284031215610f6c57600080fd5b6000610f7a84828501610f09565b91505092915050565b60008060608385031215610f9657600080fd5b6000610fa485828601610f09565b9250506020610fb585828601610ebd565b9150509250929050565b610fc8816111e3565b82525050565b6000610fdb6012836111d2565b91507f55736520646f75626c6520696e737465616400000000000000000000000000006000830152602082019050919050565b600061101b600e836111d2565b91507f496e76616c6964206e756d6265720000000000000000000000000000000000006000830152602082019050919050565b600061105b600a836111d2565b91507f57726f6e672064617461000000000000000000000000000000000000000000006000830152602082019050919050565b6040820160008201516110a460008501826110bd565b5060208201516110b760208501826110bd565b50505050565b6110c6816111ef565b82525050565b6110dd6110d8826111ef565b6111f9565b82525050565b60006110ef82856110cc565b6020820191506110ff82846110cc565b6020820191508190509392505050565b60006020820190506111246000830184610fbf565b92915050565b6000602082019050818103600083015261114381610fce565b9050919050565b600060208201905081810360008301526111638161100e565b9050919050565b600060208201905081810360008301526111838161104e565b9050919050565b600060408201905061119f600083018461108e565b92915050565b6000604051905081810181811067ffffffffffffffff821117156111c857600080fd5b8060405250919050565b600082825260208201905092915050565b60008115159050919050565b6000819050919050565b6000819050919050565b61120c816111ef565b811461121757600080fd5b5056fea365627a7a72315820f36256b486c84aaabd18a50b140f6f094f65e1aeafedc5dd0904184395d974d96c6578706572696d656e74616cf564736f6c634300050c0040",
  "source": "pragma solidity >= 0.5.0 < 0.7.0;\r\npragma experimental ABIEncoderV2;\r\n\r\nimport \"./EllipticCurveLib.sol\";\r\n\r\n\r\n/**\r\n * @notice Implementing the curve ECSecp256k1 with functions defined in the EllipticCurveLib\r\n*/\r\ncontract ECSecp256k1 {\r\n\r\n  /**\r\n   * Recommended parameters of the curve can be found in https://www.secg.org/sec2-v2.pdf\r\n  */\r\n\r\n  uint256 constant GX = 0x79BE667EF9DCBBAC55A06295CE870B07029BFCDB2DCE28D959F2815B16F81798;\r\n  uint256 constant GY = 0x483ADA7726A3C4655DA4FBFC0E1108A8FD17B448A68554199C47D08FFB10D4B8;\r\n  uint256 constant AA = 0;\r\n  uint256 constant BB = 7;\r\n  uint256 constant PP = 0xFFFFFFFFFFFFFFFFFFFFFFFFFFFFFFFFFFFFFFFFFFFFFFFFFFFFFFFEFFFFFC2F;\r\n\r\n  /**\r\n   *  @dev Struct describes an element structure on the Curve\r\n  */\r\n\r\n  struct CurveElement {\r\n      uint256 X;\r\n      uint256 Y;\r\n  }\r\n\r\n\r\n  /**\r\n    * @dev Public Key derivation from private key\r\n    * @param privKey The private key\r\n    * @return (CurveElement) The Public Key\r\n  */\r\n\r\n  function derivePubKey(uint256 privKey) public pure returns(CurveElement memory) {\r\n    (uint256 qx, uint256 qy) = EllipticCurveLib.ecMul(privKey, GX, GY, AA, PP);\r\n    return CurveElement(qx, qy);\r\n  }\r\n\r\n\r\n  /**\r\n   * @dev Verify whether an element lies on the curve\r\n   * @param e: the element to be verified\r\n   * @return bool\r\n  */\r\n\r\n  function isOnCurve(CurveElement memory e) internal pure returns(bool){\r\n      return EllipticCurveLib.isOnCurve(e.X, e.Y, AA, BB, PP);\r\n  }\r\n\r\n\r\n  /**\r\n   * @dev Finding the inverse of a curve element\r\n   * @param e: the element to be verified\r\n  */\r\n\r\n  function ecInv(CurveElement memory e) internal pure returns(CurveElement memory){\r\n      (uint256 x, uint256 y) = EllipticCurveLib.ecInv(e.X, e.Y, PP);\r\n      return CurveElement(x, y);\r\n  }\r\n\r\n  /**\r\n   * @dev Add two curve elements\r\n   * @param e1: the first element\r\n   * @param e2: the second element\r\n  */\r\n\r\n  function ecAdd(CurveElement memory e1, CurveElement memory e2) public pure returns(CurveElement memory){\r\n      (uint256 x, uint256 y) = EllipticCurveLib.ecAdd(e1.X, e1.Y, e2.X, e2.Y, AA, PP);\r\n      return CurveElement(x, y);\r\n  }\r\n\r\n\r\n  /**\r\n   * @dev Subtract a curve element by another element\r\n  */\r\n\r\n  function ecSub(CurveElement memory e1, CurveElement memory e2) public pure returns (CurveElement memory){\r\n      (uint256 x, uint256 y) = EllipticCurveLib.ecSub(e1.X, e1.Y, e2.X, e2.Y, AA, PP);\r\n      return CurveElement(x, y);\r\n  }\r\n\r\n\r\n  /**\r\n   * @dev Multiply an element on the curve with an interger\r\n   * @param k: the interger\r\n   * @param e: the curve element\r\n   * @return Return the value\r\n  */\r\n\r\n  function ecMul(uint256 k, CurveElement memory e) public pure returns(CurveElement memory){\r\n      (uint256 x, uint256 y) = EllipticCurveLib.ecMul(k, e.X, e.Y, AA, PP);\r\n      return CurveElement(x, y);\r\n  }\r\n\r\n\r\n  /**\r\n   * @dev Compairing two elements onn the Curve\r\n   * @param e1: the first element\r\n   * @param e2: the second element\r\n  */\r\n\r\n  function ecEqual(CurveElement memory e1, CurveElement memory e2) public pure returns(bool){\r\n      if((e1.X==e2.X) &&(e1.Y == e2.Y)) return true;\r\n      return false;\r\n  }\r\n\r\n\r\n  /**\r\n   * Generate a random curve element based on a given input\r\n   * @param seed: input\r\n   * @return randomBumber\r\n  */\r\n\r\n\r\n  function randomElement(uint256 seed) public view returns(CurveElement memory) {\r\n      uint256 seedHash = uint256(keccak256(abi.encodePacked(seed, block.difficulty)));\r\n      return derivePubKey(seedHash % PP);\r\n  }\r\n\r\n\r\n\r\n}\r\n",
  "sourcePath": "C:\\PHD\\Dapps\\AnonymousAuditableDataSharing\\contracts\\ECSecp256k1.sol",
  "compiler": {
    "name": "solc",
    "version": "0.5.12+commit.7709ece9.Emscripten.clang"
  },
  "schemaVersion": "3.0.20",
  "updatedAt": "2019-12-28T01:46:31.813Z",
  "devdoc": {
    "methods": {
      "derivePubKey(uint256)": {
        "details": "Public Key derivation from private key",
        "params": {
          "privKey": "The private key"
        },
        "return": "(CurveElement) The Public Key"
      },
      "ecAdd((uint256,uint256),(uint256,uint256))": {
        "details": "Add two curve elements",
        "params": {
          "e1": ": the first element",
          "e2": ": the second element"
        }
      },
      "ecEqual((uint256,uint256),(uint256,uint256))": {
        "details": "Compairing two elements onn the Curve",
        "params": {
          "e1": ": the first element",
          "e2": ": the second element"
        }
      },
      "ecMul(uint256,(uint256,uint256))": {
        "details": "Multiply an element on the curve with an interger",
        "params": {
          "e": ": the curve element",
          "k": ": the interger"
        },
        "return": "Return the value"
      },
      "ecSub((uint256,uint256),(uint256,uint256))": {
        "details": "Subtract a curve element by another element"
      },
      "randomElement(uint256)": {
        "params": {
          "seed": ": input"
        },
        "return": "randomBumber"
      }
    }
  },
  "userdoc": {
    "methods": {
      "randomElement(uint256)": {
        "notice": "Generate a random curve element based on a given input"
      }
    },
    "notice": "Implementing the curve ECSecp256k1 with functions defined in the EllipticCurveLib"
  }
}