{
  "contractName": "EllipticCurveLib",
  "abi": [
    {
      "constant": true,
      "inputs": [
        {
          "internalType": "uint256",
          "name": "_x1",
          "type": "uint256"
        },
        {
          "internalType": "uint256",
          "name": "_y1",
          "type": "uint256"
        },
        {
          "internalType": "uint256",
          "name": "_x2",
          "type": "uint256"
        },
        {
          "internalType": "uint256",
          "name": "_y2",
          "type": "uint256"
        }
      ],
      "name": "comparePoints",
      "outputs": [
        {
          "internalType": "bool",
          "name": "",
          "type": "bool"
        }
      ],
      "payable": false,
      "stateMutability": "pure",
      "type": "function"
    }
  ],
  "bytecode": "0x60f6610025600b82828239805160001a60731461001857fe5b30600052607381538281f3fe730000000000000000000000000000000000000000301460806040526004361060335760003560e01c80635be98514146038575b600080fd5b607f60048036036080811015604c57600080fd5b81019080803590602001909291908035906020019092919080359060200190929190803590602001909291905050506099565b604051808215151515815260200191505060405180910390f35b6000828514801560a857508184145b1560b4576001905060b9565b600090505b94935050505056fea265627a7a723158202cff9a03903c60217b4cf7032316db181e7bd74a36a403ba175929505ca02ac764736f6c634300050c0032",
  "source": "pragma solidity >= 0.5.0 < 0.7.0;\n\n\n/**\n * @dev Library provides arithmetic operations over elliptic curves.\n * The libary uses projective and Jacobian coordinates [1], [2] to speed up computations on the curves\n * [1] https://en.wikibooks.org/wiki/Cryptography/Prime_Curve/Standard_Projective_Coordinates\n * [2] https://en.wikibooks.org/wiki/Cryptography/Prime_Curve/Jacobian_Coordinates\n */\nlibrary EllipticCurveLib {\n\n\n  /**\n   * @dev Modular euclidean inverse of a number (mod p).\n   * @param _x The number\n   * @param _pp The modulus\n   * @return q such that x*q = 1 (mod _pp)\n  */\n\n  function invMod(uint256 _x, uint256 _pp) internal pure returns (uint256) {\n    if (_x == 0 || _x == _pp || _pp == 0) {\n      revert(\"Invalid number\");\n    }\n    uint256 q = 0;\n    uint256 newT = 1;\n    uint256 r = _pp;\n    uint256 newR = _x;\n    uint256 t;\n    while (newR != 0) {\n      t = r / newR;\n      (q, newT) = (newT, addmod(q, (_pp - mulmod(t, newT, _pp)), _pp));\n      (r, newR) = (newR, r - t * newR );\n    }\n\n    return q;\n  }\n\n\n  /**\n   * @dev Modular exponentiation, b^e % _pp. Source: https://github.com/androlo/standard-contracts/blob/master/contracts/src/crypto/ECCMath.sol\n   * @param _base base\n   * @param _exp exponent\n   * @param _pp modulus\n   * @return r such that r = b**e (mod _pp)\n  */\n\n  function expMod(uint256 _base, uint256 _exp, uint256 _pp) internal pure returns (uint256) {\n    if (_base == 0)\n      return 0;\n    if (_exp == 0)\n      return 1;\n    if (_pp == 0)\n      revert(\"Modulus is zero\");\n    uint256 r = 1;\n    uint256 bit = 2 ** 255;\n\n    assembly {\n      for { } gt(bit, 0) { }{\n        r := mulmod(mulmod(r, r, _pp), exp(_base, iszero(iszero(and(_exp, bit)))), _pp)\n        r := mulmod(mulmod(r, r, _pp), exp(_base, iszero(iszero(and(_exp, div(bit, 2))))), _pp)\n        r := mulmod(mulmod(r, r, _pp), exp(_base, iszero(iszero(and(_exp, div(bit, 4))))), _pp)\n        r := mulmod(mulmod(r, r, _pp), exp(_base, iszero(iszero(and(_exp, div(bit, 8))))), _pp)\n        bit := div(bit, 16)\n      }\n    }\n\n    return r;\n  }\n\n\n  /**\n   * @dev Converts a point (x, y, z) expressed in Jacobian coordinates to affine coordinates (x', y', 1).\n   * @param _x coordinate x\n   * @param _y coordinate y\n   * @param _z coordinate z\n   * @param _pp the modulus\n   * @return (x', y') affine coordinates\n  */\n\n  function toAffine(uint256 _x, uint256 _y, uint256 _z, uint256 _pp) internal pure returns (uint256, uint256){\n    uint256 zInv = invMod(_z, _pp);\n    uint256 zInv2 = mulmod(zInv, zInv, _pp);\n    uint256 x2 = mulmod(_x, zInv2, _pp);\n    uint256 y2 = mulmod(_y, mulmod(zInv, zInv2, _pp), _pp);\n\n    return (x2, y2);\n  }\n\n  /**\n   * @dev Derives the y coordinate from a compressed-format point x [[SEC-1]](https://www.secg.org/SEC1-Ver-1.0.pdf).\n   * @param _prefix parity byte (0x02 even, 0x03 odd)\n   * @param _x coordinate x\n   * @param _aa constant of curve\n   * @param _bb constant of curve\n   * @param _pp the modulus\n   * @return y coordinate y\n  */\n\n  function deriveY( uint8 _prefix, uint256 _x, uint256 _aa, uint256 _bb, uint256 _pp) internal pure returns (uint256){\n    require(_prefix == 0x02 || _prefix == 0x03, \"Invalid compressed EC point prefix\");\n\n    // x^3 + ax + b\n    uint256 y2 = addmod(mulmod(_x, mulmod(_x, _x, _pp), _pp), addmod(mulmod(_x, _aa, _pp), _bb, _pp), _pp);\n    y2 = expMod(y2, (_pp + 1) / 4, _pp);\n    // uint256 cmp = yBit ^ y_ & 1;\n    uint256 y = (y2 + _prefix) % 2 == 0 ? y2 : _pp - y2;\n\n    return y;\n  }\n\n\n  /**\n   * @dev Check whether point (x,y) is on curve defined by a, b, and _pp.\n   * @param _x coordinate x of P1\n   * @param _y coordinate y of P1\n   * @param _aa constant of curve\n   * @param _bb constant of curve\n   * @param _pp the modulus\n   * @return true if x,y in the curve, false else\n  */\n\n  function isOnCurve(uint _x, uint _y, uint _aa, uint _bb, uint _pp) internal pure returns (bool){\n    if (0 == _x || _x == _pp || 0 == _y || _y == _pp) {\n      return false;\n    }\n    // y^2\n    uint lhs = mulmod(_y, _y, _pp);\n    // x^3\n    uint rhs = mulmod(mulmod(_x, _x, _pp), _x, _pp);\n    if (_aa != 0) {\n      // x^3 + a*x\n      rhs = addmod(rhs, mulmod(_x, _aa, _pp), _pp);\n    }\n    if (_bb != 0) {\n      // x^3 + a*x + b\n      rhs = addmod(rhs, _bb, _pp);\n    }\n\n    return lhs == rhs;\n  }\n\n  /**\n   * @dev Calculate inverse (x, -y) of point (x, y).\n   * @param _x coordinate x of P1\n   * @param _y coordinate y of P1\n   * @param _pp the modulus\n   * @return (x, -y)\n  */\n\n\n  function ecInv(uint256 _x, uint256 _y, uint256 _pp) internal pure returns (uint256, uint256){\n    return (_x, (_pp - _y) % _pp);\n  }\n\n\n  /**\n   * @dev Add two points (x1, y1) and (x2, y2) in affine coordinates.\n   * @param _x1 coordinate x of P1\n   * @param _y1 coordinate y of P1\n   * @param _x2 coordinate x of P2\n   * @param _y2 coordinate y of P2\n   * @param _aa constant of the curve\n   * @param _pp the modulus\n   * @return (qx, qy) = P1+P2 in affine coordinates\n  */\n\n  function ecAdd(uint256 _x1, uint256 _y1, uint256 _x2, uint256 _y2, uint256 _aa, uint256 _pp) internal pure returns(uint256, uint256){\n    uint x = 0;\n    uint y = 0;\n    uint z = 0;\n    // Double if x1==x2 else add\n    if (_x1==_x2) {\n      (x, y, z) = jacDouble(_x1, _y1, 1, _aa, _pp);\n    } else {\n      (x, y, z) = jacAdd(_x1, _y1, 1, _x2, _y2, 1, _pp);\n    }\n    // Get back to affine\n    return toAffine( x, y, z, _pp);\n  }\n\n\n  /**\n   * @dev Substract two points (x1, y1) and (x2, y2) in affine coordinates.\n   * @param _x1 coordinate x of P1\n   * @param _y1 coordinate y of P1\n   * @param _x2 coordinate x of P2\n   * @param _y2 coordinate y of P2\n   * @param _aa constant of the curve\n   * @param _pp the modulus\n   * @return (qx, qy) = P1-P2 in affine coordinates\n  */\n\n  function ecSub( uint256 _x1, uint256 _y1, uint256 _x2, uint256 _y2, uint256 _aa, uint256 _pp) internal pure returns(uint256, uint256){\n    // invert square\n    (uint256 x, uint256 y) = ecInv(_x2, _y2, _pp);\n    // P1-square\n    return ecAdd(_x1, _y1, x, y, _aa, _pp);\n  }\n\n\n  /**\n   * @dev Multiply point (x1, y1, z1) times d in affine coordinates.\n   * @param _k scalar to multiply\n   * @param _x coordinate x of P1\n   * @param _y coordinate y of P1\n   * @param _aa constant of the curve\n   * @param _pp the modulus\n   * @return (qx, qy) = d*P in affine coordinates\n  */\n\n  function ecMul(uint256 _k, uint256 _x, uint256 _y, uint256 _aa, uint256 _pp) internal pure returns(uint256, uint256){\n    // Jacobian multiplication\n    (uint256 x1, uint256 y1, uint256 z1) = jacMul(_k, _x, _y, 1, _aa, _pp);\n    // Get back to affine\n    return toAffine(x1, y1, z1, _pp);\n  }\n\n\n  /**\n   * @dev Adds two points (x1, y1, z1) and (x2 y2, z2).\n   * @param _x1 coordinate x of P1\n   * @param _y1 coordinate y of P1\n   * @param _z1 coordinate z of P1\n   * @param _x2 coordinate x of square\n   * @param _y2 coordinate y of square\n   * @param _z2 coordinate z of square\n   * @param _pp the modulus\n   * @return (qx, qy, qz) P1+square in Jacobian\n  */\n\n  function jacAdd(uint256 _x1, uint256 _y1, uint256 _z1, uint256 _x2, uint256 _y2, uint256 _z2, uint256 _pp) internal pure returns (uint256, uint256, uint256){\n    if ((_x1==0)&&(_y1==0))\n      return (_x2, _y2, _z2);\n    if ((_x2==0)&&(_y2==0))\n      return (_x1, _y1, _z1);\n    // We follow the equations described in https://pdfs.semanticscholar.org/5c64/29952e08025a9649c2b0ba32518e9a7fb5c2.pdf Section 5\n\n    uint[4] memory zs; // z1^2, z1^3, z2^2, z2^3\n    zs[0] = mulmod(_z1, _z1, _pp);\n    zs[1] = mulmod(_z1, zs[0], _pp);\n    zs[2] = mulmod(_z2, _z2, _pp);\n    zs[3] = mulmod(_z2, zs[2], _pp);\n\n    // u1, s1, u2, s2\n    zs = [\n      mulmod(_x1, zs[2], _pp),\n      mulmod(_y1, zs[3], _pp),\n      mulmod(_x2, zs[0], _pp),\n      mulmod(_y2, zs[1], _pp)\n    ];\n    if (zs[0] == zs[2]) {\n      if (zs[1] != zs[3])\n        revert(\"Wrong data\");\n      else {\n        revert(\"Use double instead\");\n      }\n    }\n    uint[4] memory hr;\n    //h\n    hr[0] = addmod(zs[2], _pp - zs[0], _pp);\n    //r\n    hr[1] = addmod(zs[3], _pp - zs[1], _pp);\n    //h^2\n    hr[2] = mulmod(hr[0], hr[0], _pp);\n    // h^3\n    hr[3] = mulmod(hr[2], hr[0], _pp);\n    // qx = -h^3  -2u1h^2+r^2\n    uint256 qx = addmod(mulmod(hr[1], hr[1], _pp), _pp - hr[3], _pp);\n    qx = addmod(qx, _pp - mulmod(2, mulmod(zs[0], hr[2], _pp), _pp), _pp);\n    // qy = -s1*z1*h^3+r(u1*h^2 -x^3)\n    uint256 qy = mulmod(hr[1], addmod(mulmod(zs[0], hr[2], _pp), _pp - qx, _pp), _pp);\n    qy = addmod(qy, _pp - mulmod(zs[1], hr[3], _pp), _pp);\n    // qz = h*z1*z2\n    uint256 qz = mulmod(hr[0], mulmod(_z1, _z2, _pp), _pp);\n    return(qx, qy, qz);\n  }\n\n\n  /**\n   * @dev Doubles a points (x, y, z).\n   * @param _x coordinate x of P1\n   * @param _y coordinate y of P1\n   * @param _z coordinate z of P1\n   * @param _pp the modulus\n   * @param _aa the a scalar in the curve equation\n   * @return (qx, qy, qz) 2P in Jacobian\n  */\n\n  function jacDouble(uint256 _x, uint256 _y, uint256 _z, uint256 _aa, uint256 _pp) internal pure returns (uint256, uint256, uint256){\n    if (_z == 0)\n      return (_x, _y, _z);\n    uint256[3] memory square;\n    // We follow the equations described in https://pdfs.semanticscholar.org/5c64/29952e08025a9649c2b0ba32518e9a7fb5c2.pdf Section 5\n    // Note: there is a bug in the paper regarding the m parameter, M=3*(x1^2)+a*(z1^4)\n    square[0] = mulmod(_x, _x, _pp); //x1^2\n    square[1] = mulmod(_y, _y, _pp); //y1^2\n    square[2] = mulmod(_z, _z, _pp); //z1^2\n\n    // s\n    uint s = mulmod(4, mulmod(_x, square[1], _pp), _pp);\n    // m\n    uint m = addmod(mulmod(3, square[0], _pp), mulmod(_aa, mulmod(square[2], square[2], _pp), _pp), _pp);\n    // qx\n    uint256 qx = addmod(mulmod(m, m, _pp), _pp - addmod(s, s, _pp), _pp);\n    // qy = -8*y1^4 + M(S-T)\n    uint256 qy = addmod(mulmod(m, addmod(s, _pp - qx, _pp), _pp), _pp - mulmod(8, mulmod(square[1], square[1], _pp), _pp), _pp);\n    // qz = 2*y1*z1\n    uint256 qz = mulmod(2, mulmod(_y, _z, _pp), _pp);\n\n    return (qx, qy, qz);\n  }\n\n\n  /**\n   * @dev Multiply point (x, y, z) times d.\n   * @param _d scalar to multiply\n   * @param _x coordinate x of P1\n   * @param _y coordinate y of P1\n   * @param _z coordinate z of P1\n   * @param _aa constant of curve\n   * @param _pp the modulus\n   * @return (qx, qy, qz) d*P1 in Jacobian\n  */\n\n  function jacMul(uint256 _d, uint256 _x, uint256 _y, uint256 _z, uint256 _aa, uint256 _pp) internal pure returns (uint256, uint256, uint256){\n    uint256 remaining = _d;\n    uint256[3] memory point;\n    point[0] = _x;\n    point[1] = _y;\n    point[2] = _z;\n    uint256 qx = 0;\n    uint256 qy = 0;\n    uint256 qz = 1;\n\n    if (_d == 0) {\n      return (qx, qy, qz);\n    }\n    // Double and add algorithm\n    while (remaining != 0) {\n      if ((remaining & 1) != 0) {\n        (qx, qy, qz) = jacAdd(qx, qy, qz, point[0], point[1], point[2], _pp);\n      }\n      remaining = remaining / 2;\n      (point[0], point[1], point[2]) = jacDouble(point[0], point[1], point[2], _aa, _pp);\n    }\n    return (qx, qy, qz);\n  }\n\n\n  /**\n   * @dev comepare two points on the curve\n   * @param _x1: coordinate x of P1\n   * @param _y1: coordinate y of P1\n   * @param _x2: coordinate x of P2\n   * @param _y2: coordinate y of P2\n   * return a boolean value\n  */\n\n  function comparePoints(uint256 _x1, uint256 _y1, uint256 _x2, uint256 _y2) public pure returns(bool){\n      if((_x1==_x2) && (_y1==_y2)){\n          return true;\n      }\n\n      return false;\n  }\n}\n",
  "sourcePath": "C:\\PHD\\Dapps\\AnonymousAuditableDataSharing\\contracts\\EllipticCurveLib.sol",
  "compiler": {
    "name": "solc",
    "version": "0.5.12+commit.7709ece9.Emscripten.clang"
  },
  "schemaVersion": "3.0.20",
  "updatedAt": "2019-12-28T01:46:31.829Z",
  "devdoc": {
    "details": "Library provides arithmetic operations over elliptic curves. The libary uses projective and Jacobian coordinates [1], [2] to speed up computations on the curves [1] https://en.wikibooks.org/wiki/Cryptography/Prime_Curve/Standard_Projective_Coordinates [2] https://en.wikibooks.org/wiki/Cryptography/Prime_Curve/Jacobian_Coordinates",
    "methods": {
      "comparePoints(uint256,uint256,uint256,uint256)": {
        "details": "comepare two points on the curve",
        "params": {
          "_x1": ": coordinate x of P1",
          "_x2": ": coordinate x of P2",
          "_y1": ": coordinate y of P1",
          "_y2": ": coordinate y of P2 return a boolean value"
        }
      }
    }
  },
  "userdoc": {
    "methods": {}
  }
}