{
  "contractName": "IdentityContract",
  "abi": [
    {
      "constant": true,
      "inputs": [
        {
          "internalType": "address",
          "name": "",
          "type": "address"
        }
      ],
      "name": "registeredIdentityList",
      "outputs": [
        {
          "internalType": "string",
          "name": "identityData",
          "type": "string"
        }
      ],
      "payable": false,
      "stateMutability": "view",
      "type": "function"
    },
    {
      "constant": false,
      "inputs": [
        {
          "internalType": "string",
          "name": "newIdentity",
          "type": "string"
        }
      ],
      "name": "registerUserIdentity",
      "outputs": [],
      "payable": false,
      "stateMutability": "nonpayable",
      "type": "function"
    },
    {
      "constant": false,
      "inputs": [
        {
          "internalType": "address",
          "name": "removedIdentity",
          "type": "address"
        }
      ],
      "name": "removeUserIdentity",
      "outputs": [],
      "payable": false,
      "stateMutability": "nonpayable",
      "type": "function"
    },
    {
      "constant": true,
      "inputs": [
        {
          "internalType": "address",
          "name": "userIdentity",
          "type": "address"
        }
      ],
      "name": "retrieveUserIdentity",
      "outputs": [
        {
          "internalType": "string",
          "name": "",
          "type": "string"
        }
      ],
      "payable": false,
      "stateMutability": "view",
      "type": "function"
    }
  ],
  "bytecode": "0x608060405234801561001057600080fd5b506108b4806100206000396000f3fe608060405234801561001057600080fd5b506004361061004c5760003560e01c8063115b440f146100515780634fde811f1461010e5780636dee09d514610152578063b34941c71461020d575b600080fd5b6100936004803603602081101561006757600080fd5b81019080803573ffffffffffffffffffffffffffffffffffffffff1690602001909291905050506102ca565b6040518080602001828103825283818151815260200191508051906020019080838360005b838110156100d35780820151818401526020810190506100b8565b50505050905090810190601f1680156101005780820380516001836020036101000a031916815260200191505b509250505060405180910390f35b6101506004803603602081101561012457600080fd5b81019080803573ffffffffffffffffffffffffffffffffffffffff169060200190929190505050610380565b005b61020b6004803603602081101561016857600080fd5b810190808035906020019064010000000081111561018557600080fd5b82018360208201111561019757600080fd5b803590602001918460018302840111640100000000831117156101b957600080fd5b91908080601f016020809104026020016040519081016040528093929190818152602001838380828437600081840152601f19601f820116905080830192505050505050509192919290505050610458565b005b61024f6004803603602081101561022357600080fd5b81019080803573ffffffffffffffffffffffffffffffffffffffff169060200190929190505050610583565b6040518080602001828103825283818151815260200191508051906020019080838360005b8381101561028f578082015181840152602081019050610274565b50505050905090810190601f1680156102bc5780820380516001836020036101000a031916815260200191505b509250505060405180910390f35b6000602052806000526040600020600091509050806000018054600181600116156101000203166002900480601f0160208091040260200160405190810160405280929190818152602001828054600181600116156101000203166002900480156103765780601f1061034b57610100808354040283529160200191610376565b820191906000526020600020905b81548152906001019060200180831161035957829003601f168201915b5050505050905081565b8073ffffffffffffffffffffffffffffffffffffffff163373ffffffffffffffffffffffffffffffffffffffff1614610404576040517f08c379a000000000000000000000000000000000000000000000000000000000815260040180806020018281038252602c815260200180610833602c913960400191505060405180910390fd5b6000803373ffffffffffffffffffffffffffffffffffffffff1673ffffffffffffffffffffffffffffffffffffffff168152602001908152602001600020600080820160006104539190610732565b505050565b60008060003373ffffffffffffffffffffffffffffffffffffffff1673ffffffffffffffffffffffffffffffffffffffff1681526020019081526020016000206000018054600181600116156101000203166002900490501415610507576040517f08c379a000000000000000000000000000000000000000000000000000000000815260040180806020018281038252602181526020018061085f6021913960400191505060405180910390fd5b61050f61077a565b6040518060200160405280838152509050806000803373ffffffffffffffffffffffffffffffffffffffff1673ffffffffffffffffffffffffffffffffffffffff168152602001908152602001600020600082015181600001908051906020019061057b92919061078d565b509050505050565b606060008060003373ffffffffffffffffffffffffffffffffffffffff1673ffffffffffffffffffffffffffffffffffffffff1681526020019081526020016000206000018054600181600116156101000203166002900490501415610651576040517f08c379a00000000000000000000000000000000000000000000000000000000081526004018080602001828103825260148152602001807f5573657220646f6573206e6f742065786973742e00000000000000000000000081525060200191505060405180910390fd5b6000808373ffffffffffffffffffffffffffffffffffffffff1673ffffffffffffffffffffffffffffffffffffffff1681526020019081526020016000206000018054600181600116156101000203166002900480601f0160208091040260200160405190810160405280929190818152602001828054600181600116156101000203166002900480156107265780601f106106fb57610100808354040283529160200191610726565b820191906000526020600020905b81548152906001019060200180831161070957829003601f168201915b50505050509050919050565b50805460018160011615610100020316600290046000825580601f106107585750610777565b601f016020900490600052602060002090810190610776919061080d565b5b50565b6040518060200160405280606081525090565b828054600181600116156101000203166002900490600052602060002090601f016020900481019282601f106107ce57805160ff19168380011785556107fc565b828001600101855582156107fc579182015b828111156107fb5782518255916020019190600101906107e0565b5b509050610809919061080d565b5090565b61082f91905b8082111561082b576000816000905550600101610813565b5090565b9056fe4f6e6c7920746865206f776e65722063616e2072656d6f766520697473206f776e6572206964656e74697479546865206964656e746974792068617320616c726561647920657869737465642ea265627a7a72315820367a594175cdbf03ea8a9a7011566b511f768d3d6bcdc537f72fcdb56b3acf8264736f6c634300050c0032",
  "source": "pragma solidity >=0.5.0 <0.7.0;\r\n\r\n\r\ncontract IdentityContract{\r\n\r\n    /**\r\n     * @dev UserIdentity describes the identity of a user. In this simple struct, the identity is represented by a string. One can update this contract by introduce\r\n     * more information into the struct then deploy the modified contract on the blockchain. The address of the new contract will be registred into the Proxycontract\r\n     * for users to be aware of its existence.\r\n    */\r\n\r\n    struct UserIdentity{\r\n        string identityData;\r\n    }\r\n\r\n    /**\r\n     * @dev Store all the user addresses registrered in the system\r\n     * @notice user address is computed as the first 20 bytes of the hash of the user's public key\r\n    */\r\n    mapping (address => UserIdentity) public registeredIdentityList;\r\n\r\n\r\n    /**\r\n     * @dev Registering a new user in the system\r\n     * @param newIdentity: the address of the new user\r\n    */\r\n\r\n    function registerUserIdentity(string memory newIdentity) public {\r\n\r\n        require(bytes(registeredIdentityList[msg.sender].identityData).length != 0, \"The identity has already existed.\");\r\n        UserIdentity memory newUser = UserIdentity(newIdentity);\r\n        registeredIdentityList[msg.sender] = newUser;\r\n    }\r\n\r\n\r\n    /**\r\n     * @dev Remove a user from the registry\r\n     * @param removedIdentity: the identity of the user\r\n    */\r\n\r\n    function removeUserIdentity(address removedIdentity) public {\r\n        require(msg.sender == removedIdentity, \"Only the owner can remove its owner identity\");\r\n        delete registeredIdentityList[msg.sender];\r\n    }\r\n\r\n\r\n    /**\r\n     * @dev Get the identity of a user based on its address/public key\r\n     * @param userIdentity: address of the user\r\n    */\r\n\r\n    function retrieveUserIdentity(address userIdentity) public view returns(string memory){\r\n        require(bytes(registeredIdentityList[msg.sender].identityData).length !=0, \"User does not exist.\");\r\n        return registeredIdentityList[userIdentity].identityData;\r\n    }\r\n\r\n\r\n}\r\n",
  "sourcePath": "C:/PHD/Dapps/AnonymousAuditableDataSharing/contracts/IdentityContract.sol",
  "compiler": {
    "name": "solc",
    "version": "0.5.12+commit.7709ece9.Emscripten.clang"
  },
  "schemaVersion": "3.0.20",
  "updatedAt": "2019-12-23T13:20:56.398Z",
  "networkType": "ethereum",
  "devdoc": {
    "methods": {
      "registerUserIdentity(string)": {
        "details": "Registering a new user in the system",
        "params": {
          "newIdentity": ": the address of the new user"
        }
      },
      "removeUserIdentity(address)": {
        "details": "Remove a user from the registry",
        "params": {
          "removedIdentity": ": the identity of the user"
        }
      },
      "retrieveUserIdentity(address)": {
        "details": "Get the identity of a user based on its address/public key",
        "params": {
          "userIdentity": ": address of the user"
        }
      }
    }
  },
  "userdoc": {
    "methods": {}
  }
}